{
  "_format": "hh-sol-artifact-1",
  "contractName": "RaiderStakingLocking",
  "sourceName": "contracts/RaiderStakingLocking.sol",
  "abi": [
    {
      "inputs": [
        {
          "internalType": "address",
          "name": "_stakingToken",
          "type": "address"
        },
        {
          "internalType": "address",
          "name": "_rewardToken",
          "type": "address"
        }
      ],
      "stateMutability": "nonpayable",
      "type": "constructor"
    },
    {
      "anonymous": false,
      "inputs": [
        {
          "indexed": true,
          "internalType": "address",
          "name": "previousOwner",
          "type": "address"
        },
        {
          "indexed": true,
          "internalType": "address",
          "name": "newOwner",
          "type": "address"
        }
      ],
      "name": "OwnershipTransferred",
      "type": "event"
    },
    {
      "anonymous": false,
      "inputs": [
        {
          "indexed": false,
          "internalType": "address",
          "name": "account",
          "type": "address"
        }
      ],
      "name": "Paused",
      "type": "event"
    },
    {
      "anonymous": false,
      "inputs": [
        {
          "indexed": false,
          "internalType": "uint256",
          "name": "reward",
          "type": "uint256"
        }
      ],
      "name": "RewardAdded",
      "type": "event"
    },
    {
      "anonymous": false,
      "inputs": [
        {
          "indexed": true,
          "internalType": "address",
          "name": "user",
          "type": "address"
        },
        {
          "indexed": false,
          "internalType": "uint256",
          "name": "reward",
          "type": "uint256"
        }
      ],
      "name": "RewardPaid",
      "type": "event"
    },
    {
      "anonymous": false,
      "inputs": [
        {
          "indexed": true,
          "internalType": "address",
          "name": "user",
          "type": "address"
        },
        {
          "indexed": false,
          "internalType": "uint256",
          "name": "amount",
          "type": "uint256"
        }
      ],
      "name": "Staked",
      "type": "event"
    },
    {
      "anonymous": false,
      "inputs": [
        {
          "indexed": false,
          "internalType": "address",
          "name": "account",
          "type": "address"
        }
      ],
      "name": "Unpaused",
      "type": "event"
    },
    {
      "anonymous": false,
      "inputs": [
        {
          "indexed": true,
          "internalType": "address",
          "name": "user",
          "type": "address"
        },
        {
          "indexed": false,
          "internalType": "uint256",
          "name": "amount",
          "type": "uint256"
        }
      ],
      "name": "Withdrawn",
      "type": "event"
    },
    {
      "inputs": [
        {
          "internalType": "address",
          "name": "_address",
          "type": "address"
        }
      ],
      "name": "addressStakedBalance",
      "outputs": [
        {
          "internalType": "uint256",
          "name": "",
          "type": "uint256"
        }
      ],
      "stateMutability": "view",
      "type": "function"
    },
    {
      "inputs": [],
      "name": "bigMultiplier",
      "outputs": [
        {
          "internalType": "uint256",
          "name": "",
          "type": "uint256"
        }
      ],
      "stateMutability": "view",
      "type": "function"
    },
    {
      "inputs": [
        {
          "internalType": "uint256",
          "name": "_amount",
          "type": "uint256"
        },
        {
          "internalType": "uint256",
          "name": "_duration",
          "type": "uint256"
        }
      ],
      "name": "createStake",
      "outputs": [],
      "stateMutability": "nonpayable",
      "type": "function"
    },
    {
      "inputs": [],
      "name": "dailyEmissionsRate",
      "outputs": [
        {
          "internalType": "uint256",
          "name": "",
          "type": "uint256"
        }
      ],
      "stateMutability": "view",
      "type": "function"
    },
    {
      "inputs": [
        {
          "internalType": "uint256",
          "name": "_amount",
          "type": "uint256"
        }
      ],
      "name": "depositRewards",
      "outputs": [],
      "stateMutability": "nonpayable",
      "type": "function"
    },
    {
      "inputs": [],
      "name": "emergencyUnlockToggle",
      "outputs": [],
      "stateMutability": "nonpayable",
      "type": "function"
    },
    {
      "inputs": [
        {
          "internalType": "uint256",
          "name": "_amount",
          "type": "uint256"
        }
      ],
      "name": "emergencyUnstake",
      "outputs": [],
      "stateMutability": "nonpayable",
      "type": "function"
    },
    {
      "inputs": [],
      "name": "getRewards",
      "outputs": [],
      "stateMutability": "nonpayable",
      "type": "function"
    },
    {
      "inputs": [
        {
          "internalType": "address",
          "name": "_address",
          "type": "address"
        }
      ],
      "name": "isStaker",
      "outputs": [
        {
          "internalType": "bool",
          "name": "",
          "type": "bool"
        }
      ],
      "stateMutability": "view",
      "type": "function"
    },
    {
      "inputs": [],
      "name": "lastRewardTime",
      "outputs": [
        {
          "internalType": "uint256",
          "name": "",
          "type": "uint256"
        }
      ],
      "stateMutability": "view",
      "type": "function"
    },
    {
      "inputs": [],
      "name": "owner",
      "outputs": [
        {
          "internalType": "address",
          "name": "",
          "type": "address"
        }
      ],
      "stateMutability": "view",
      "type": "function"
    },
    {
      "inputs": [],
      "name": "pause",
      "outputs": [],
      "stateMutability": "nonpayable",
      "type": "function"
    },
    {
      "inputs": [],
      "name": "paused",
      "outputs": [
        {
          "internalType": "bool",
          "name": "",
          "type": "bool"
        }
      ],
      "stateMutability": "view",
      "type": "function"
    },
    {
      "inputs": [
        {
          "internalType": "uint256",
          "name": "_amount",
          "type": "uint256"
        }
      ],
      "name": "removeStake",
      "outputs": [],
      "stateMutability": "nonpayable",
      "type": "function"
    },
    {
      "inputs": [],
      "name": "renounceOwnership",
      "outputs": [],
      "stateMutability": "nonpayable",
      "type": "function"
    },
    {
      "inputs": [],
      "name": "rewardsBalance",
      "outputs": [
        {
          "internalType": "uint256",
          "name": "",
          "type": "uint256"
        }
      ],
      "stateMutability": "view",
      "type": "function"
    },
    {
      "inputs": [
        {
          "internalType": "uint256",
          "name": "_amount",
          "type": "uint256"
        }
      ],
      "name": "setDailyEmissions",
      "outputs": [],
      "stateMutability": "nonpayable",
      "type": "function"
    },
    {
      "inputs": [],
      "name": "showBigRewardsPerToken",
      "outputs": [
        {
          "internalType": "uint256",
          "name": "",
          "type": "uint256"
        }
      ],
      "stateMutability": "view",
      "type": "function"
    },
    {
      "inputs": [],
      "name": "showBigUserRewardsCollected",
      "outputs": [
        {
          "internalType": "uint256",
          "name": "",
          "type": "uint256"
        }
      ],
      "stateMutability": "view",
      "type": "function"
    },
    {
      "inputs": [
        {
          "internalType": "address",
          "name": "_address",
          "type": "address"
        }
      ],
      "name": "showLockTimeRemaining",
      "outputs": [
        {
          "internalType": "uint256",
          "name": "",
          "type": "uint256"
        }
      ],
      "stateMutability": "view",
      "type": "function"
    },
    {
      "inputs": [],
      "name": "showRewardToken",
      "outputs": [
        {
          "internalType": "address",
          "name": "",
          "type": "address"
        }
      ],
      "stateMutability": "view",
      "type": "function"
    },
    {
      "inputs": [],
      "name": "showRewardsMultiplier",
      "outputs": [
        {
          "internalType": "uint256",
          "name": "",
          "type": "uint256"
        }
      ],
      "stateMutability": "view",
      "type": "function"
    },
    {
      "inputs": [],
      "name": "showStakingToken",
      "outputs": [
        {
          "internalType": "address",
          "name": "",
          "type": "address"
        }
      ],
      "stateMutability": "view",
      "type": "function"
    },
    {
      "inputs": [],
      "name": "timeSinceLastReward",
      "outputs": [
        {
          "internalType": "uint256",
          "name": "",
          "type": "uint256"
        }
      ],
      "stateMutability": "view",
      "type": "function"
    },
    {
      "inputs": [],
      "name": "totalStakedSupply",
      "outputs": [
        {
          "internalType": "uint256",
          "name": "",
          "type": "uint256"
        }
      ],
      "stateMutability": "view",
      "type": "function"
    },
    {
      "inputs": [],
      "name": "totalWeightedStakedSupply",
      "outputs": [
        {
          "internalType": "uint256",
          "name": "",
          "type": "uint256"
        }
      ],
      "stateMutability": "view",
      "type": "function"
    },
    {
      "inputs": [
        {
          "internalType": "address",
          "name": "newOwner",
          "type": "address"
        }
      ],
      "name": "transferOwnership",
      "outputs": [],
      "stateMutability": "nonpayable",
      "type": "function"
    },
    {
      "inputs": [],
      "name": "unpause",
      "outputs": [],
      "stateMutability": "nonpayable",
      "type": "function"
    },
    {
      "inputs": [],
      "name": "updateBigRewardsPerToken",
      "outputs": [],
      "stateMutability": "nonpayable",
      "type": "function"
    },
    {
      "inputs": [
        {
          "internalType": "address",
          "name": "_address",
          "type": "address"
        }
      ],
      "name": "userPendingRewards",
      "outputs": [
        {
          "internalType": "uint256",
          "name": "",
          "type": "uint256"
        }
      ],
      "stateMutability": "view",
      "type": "function"
    },
    {
      "inputs": [
        {
          "internalType": "uint256",
          "name": "_amount",
          "type": "uint256"
        }
      ],
      "name": "withdrawRewards",
      "outputs": [],
      "stateMutability": "nonpayable",
      "type": "function"
    }
  ],
  "bytecode": "0x6080604052670de0b6b3a7640000600355670de0b6b3a76400006004556001600c556002600d556003600e556004600f5564e8d4a510006013556000601560006101000a81548160ff0219169083151502179055503480156200006157600080fd5b5060405162003ac538038062003ac58339818101604052810190620000879190620003ba565b620000a76200009b6200017b60201b60201c565b6200018360201b60201c565b600180819055506000600260006101000a81548160ff02191690831515021790555081601060006101000a81548173ffffffffffffffffffffffffffffffffffffffff021916908373ffffffffffffffffffffffffffffffffffffffff16021790555080601160006101000a81548173ffffffffffffffffffffffffffffffffffffffff021916908373ffffffffffffffffffffffffffffffffffffffff160217905550426005819055506902e691eff8e2b4c80000601281905550620001736200024760201b60201c565b5050620005e2565b600033905090565b60008060009054906101000a900473ffffffffffffffffffffffffffffffffffffffff169050816000806101000a81548173ffffffffffffffffffffffffffffffffffffffff021916908373ffffffffffffffffffffffffffffffffffffffff1602179055508173ffffffffffffffffffffffffffffffffffffffff168173ffffffffffffffffffffffffffffffffffffffff167f8be0079c531659141344cd1fd0a4f28419497f9722a3daafe3b4186f6b6457e060405160405180910390a35050565b6000620002596200032060201b60201c565b11156200031e576000620002726200032060201b60201c565b90504260058190555060006200029c620151806012546200034360201b62001e071790919060201c565b90506000620002ba83836200035b60201b62001e1d1790919060201c565b90506000620002f5600454620002e1601354856200035b60201b62001e1d1790919060201c565b6200034360201b62001e071790919060201c565b905062000313816014546200037360201b62001e331790919060201c565b601481905550505050505b565b60006200033e600554426200038b60201b62001e491790919060201c565b905090565b6000818362000353919062000458565b905092915050565b600081836200036b919062000490565b905092915050565b60008183620003839190620003fb565b905092915050565b600081836200039b9190620004f1565b905092915050565b600081519050620003b481620005c8565b92915050565b60008060408385031215620003ce57600080fd5b6000620003de85828601620003a3565b9250506020620003f185828601620003a3565b9150509250929050565b6000620004088262000560565b9150620004158362000560565b9250827fffffffffffffffffffffffffffffffffffffffffffffffffffffffffffffffff038211156200044d576200044c6200056a565b5b828201905092915050565b6000620004658262000560565b9150620004728362000560565b92508262000485576200048462000599565b5b828204905092915050565b60006200049d8262000560565b9150620004aa8362000560565b9250817fffffffffffffffffffffffffffffffffffffffffffffffffffffffffffffffff0483118215151615620004e657620004e56200056a565b5b828202905092915050565b6000620004fe8262000560565b91506200050b8362000560565b9250828210156200052157620005206200056a565b5b828203905092915050565b6000620005398262000540565b9050919050565b600073ffffffffffffffffffffffffffffffffffffffff82169050919050565b6000819050919050565b7f4e487b7100000000000000000000000000000000000000000000000000000000600052601160045260246000fd5b7f4e487b7100000000000000000000000000000000000000000000000000000000600052601260045260246000fd5b620005d3816200052c565b8114620005df57600080fd5b50565b6134d380620005f26000396000f3fe608060405234801561001057600080fd5b50600436106101e55760003560e01c80638da5cb5b1161010f578063cb3992be116100a2578063e722805111610071578063e7228051146104da578063f2fde38b146104e4578063fadac5c014610500578063fc9d77111461051e576101e5565b8063cb3992be14610452578063d774cdd014610470578063d7fa023d146104a0578063d8a839ed146104bc576101e5565b80639aea8209116100de5780639aea8209146103da578063a3839bb2146103f8578063b1c52f3614610416578063bcdc3cfc14610434576101e5565b80638da5cb5b146103665780639231cf74146103845780639342c8f4146103a2578063939624ab146103be576101e5565b80633f4ba83a11610187578063701f53ba11610156578063701f53ba1461032c578063715018a6146103365780638456cb59146103405780638bdf67f21461034a576101e5565b80633f4ba83a146102b65780634b1cfea0146102c05780635c975abb146102de5780636f1e8533146102fc576101e5565b8063136e9352116101c3578063136e93521461022e57806329fc7b501461024c57806333a00bb81461027c578063366667aa1461029a576101e5565b8063012ce501146101ea5780630572b0cc14610206578063131f2e5314610210575b600080fd5b61020460048036038101906101ff919061294c565b61054e565b005b61020e6108e2565b005b610218610a34565b6040516102259190612eea565b60405180910390f35b610236610ae6565b6040516102439190612eea565b60405180910390f35b610266600480360381019061026191906128fa565b610aec565b6040516102739190612eea565b60405180910390f35b610284610b98565b6040516102919190612c72565b60405180910390f35b6102b460048036038101906102af919061294c565b610bc2565b005b6102be610c48565b005b6102c8610cce565b6040516102d59190612eea565b60405180910390f35b6102e6610d15565b6040516102f39190612ced565b60405180910390f35b610316600480360381019061031191906128fa565b610d2c565b6040516103239190612ced565b60405180910390f35b610334610d82565b005b61033e610e27565b005b610348610eaf565b005b610364600480360381019061035f919061294c565b610f35565b005b61036e611003565b60405161037b9190612c72565b60405180910390f35b61038c61102c565b6040516103999190612eea565b60405180910390f35b6103bc60048036038101906103b7919061294c565b611032565b005b6103d860048036038101906103d3919061294c565b6110fe565b005b6103e261152d565b6040516103ef9190612eea565b60405180910390f35b610400611533565b60405161040d9190612eea565b60405180910390f35b61041e611539565b60405161042b9190612eea565b60405180910390f35b61043c611580565b6040516104499190612eea565b60405180910390f35b61045a611586565b6040516104679190612c72565b60405180910390f35b61048a600480360381019061048591906128fa565b6115b0565b6040516104979190612eea565b60405180910390f35b6104ba60048036038101906104b5919061299e565b6115f9565b005b6104c4611b0f565b6040516104d19190612eea565b60405180910390f35b6104e2611b19565b005b6104fe60048036038101906104f991906128fa565b611bc1565b005b610508611cb9565b6040516105159190612eea565b60405180910390f35b610538600480360381019061053391906128fa565b611cd5565b6040516105459190612eea565b60405180910390f35b60008111610591576040517f08c379a000000000000000000000000000000000000000000000000000000000815260040161058890612eca565b60405180910390fd5b600a60003373ffffffffffffffffffffffffffffffffffffffff1673ffffffffffffffffffffffffffffffffffffffff168152602001908152602001600020544211806105ea5750601560009054906101000a900460ff165b610629576040517f08c379a000000000000000000000000000000000000000000000000000000000815260040161062090612e2a565b60405180910390fd5b6000600b60003373ffffffffffffffffffffffffffffffffffffffff1673ffffffffffffffffffffffffffffffffffffffff16815260200190815260200160002054905061068282600354611e4990919063ffffffff16565b6003819055506106af61069e8284611e1d90919063ffffffff16565b600454611e4990919063ffffffff16565b60048190555061070782600660003373ffffffffffffffffffffffffffffffffffffffff1673ffffffffffffffffffffffffffffffffffffffff16815260200190815260200160002054611e4990919063ffffffff16565b600660003373ffffffffffffffffffffffffffffffffffffffff1673ffffffffffffffffffffffffffffffffffffffff168152602001908152602001600020819055506107ae6107608284611e1d90919063ffffffff16565b600760003373ffffffffffffffffffffffffffffffffffffffff1673ffffffffffffffffffffffffffffffffffffffff16815260200190815260200160002054611e4990919063ffffffff16565b600760003373ffffffffffffffffffffffffffffffffffffffff1673ffffffffffffffffffffffffffffffffffffffff168152602001908152602001600020819055506000600660003373ffffffffffffffffffffffffffffffffffffffff1673ffffffffffffffffffffffffffffffffffffffff1681526020019081526020016000205414156108435761084233611e5f565b5b6108903383601060009054906101000a900473ffffffffffffffffffffffffffffffffffffffff1673ffffffffffffffffffffffffffffffffffffffff16611f029092919063ffffffff16565b3373ffffffffffffffffffffffffffffffffffffffff167f7084f5476618d8e60b11ef0d7d3f06914655adb8793e28ff7f018d4c76d505d5836040516108d69190612eea565b60405180910390a25050565b60026001541415610928576040517f08c379a000000000000000000000000000000000000000000000000000000000815260040161091f90612eaa565b60405180910390fd5b6002600181905550610938610d15565b15610978576040517f08c379a000000000000000000000000000000000000000000000000000000000815260040161096f90612dea565b60405180910390fd5b600061098333611f88565b90506000811115610a2a576109db3382601160009054906101000a900473ffffffffffffffffffffffffffffffffffffffff1673ffffffffffffffffffffffffffffffffffffffff16611f029092919063ffffffff16565b3373ffffffffffffffffffffffffffffffffffffffff167fe2403640ba68fed3a2f88b7557551d1993f84b99bb10ff833f0cf8db0c5e048682604051610a219190612eea565b60405180910390a25b5060018081905550565b6000601160009054906101000a900473ffffffffffffffffffffffffffffffffffffffff1673ffffffffffffffffffffffffffffffffffffffff166370a08231306040518263ffffffff1660e01b8152600401610a919190612c72565b60206040518083038186803b158015610aa957600080fd5b505afa158015610abd573d6000803e3d6000fd5b505050506040513d601f19601f82011682018060405250810190610ae19190612975565b905090565b60125481565b600042600a60008473ffffffffffffffffffffffffffffffffffffffff1673ffffffffffffffffffffffffffffffffffffffff168152602001908152602001600020541115610b8e57610b8742600a60008573ffffffffffffffffffffffffffffffffffffffff1673ffffffffffffffffffffffffffffffffffffffff16815260200190815260200160002054611e4990919063ffffffff16565b9050610b93565b600090505b919050565b6000601060009054906101000a900473ffffffffffffffffffffffffffffffffffffffff16905090565b610bca612002565b73ffffffffffffffffffffffffffffffffffffffff16610be8611003565b73ffffffffffffffffffffffffffffffffffffffff1614610c3e576040517f08c379a0000000000000000000000000000000000000000000000000000000008152600401610c3590612e0a565b60405180910390fd5b8060128190555050565b610c50612002565b73ffffffffffffffffffffffffffffffffffffffff16610c6e611003565b73ffffffffffffffffffffffffffffffffffffffff1614610cc4576040517f08c379a0000000000000000000000000000000000000000000000000000000008152600401610cbb90612e0a565b60405180910390fd5b610ccc61200a565b565b6000600960003373ffffffffffffffffffffffffffffffffffffffff1673ffffffffffffffffffffffffffffffffffffffff16815260200190815260200160002054905090565b6000600260009054906101000a900460ff16905090565b6000600860008373ffffffffffffffffffffffffffffffffffffffff1673ffffffffffffffffffffffffffffffffffffffff16815260200190815260200160002060009054906101000a900460ff169050919050565b6000610d8c611cb9565b1115610e25576000610d9c611cb9565b9050426005819055506000610dbf62015180601254611e0790919063ffffffff16565b90506000610dd68383611e1d90919063ffffffff16565b90506000610e03600454610df560135485611e1d90919063ffffffff16565b611e0790919063ffffffff16565b9050610e1a81601454611e3390919063ffffffff16565b601481905550505050505b565b610e2f612002565b73ffffffffffffffffffffffffffffffffffffffff16610e4d611003565b73ffffffffffffffffffffffffffffffffffffffff1614610ea3576040517f08c379a0000000000000000000000000000000000000000000000000000000008152600401610e9a90612e0a565b60405180910390fd5b610ead60006120ac565b565b610eb7612002565b73ffffffffffffffffffffffffffffffffffffffff16610ed5611003565b73ffffffffffffffffffffffffffffffffffffffff1614610f2b576040517f08c379a0000000000000000000000000000000000000000000000000000000008152600401610f2290612e0a565b60405180910390fd5b610f33612170565b565b610f3d612002565b73ffffffffffffffffffffffffffffffffffffffff16610f5b611003565b73ffffffffffffffffffffffffffffffffffffffff1614610fb1576040517f08c379a0000000000000000000000000000000000000000000000000000000008152600401610fa890612e0a565b60405180910390fd5b611000333083601160009054906101000a900473ffffffffffffffffffffffffffffffffffffffff1673ffffffffffffffffffffffffffffffffffffffff16612213909392919063ffffffff16565b50565b60008060009054906101000a900473ffffffffffffffffffffffffffffffffffffffff16905090565b60055481565b61103a612002565b73ffffffffffffffffffffffffffffffffffffffff16611058611003565b73ffffffffffffffffffffffffffffffffffffffff16146110ae576040517f08c379a00000000000000000000000000000000000000000000000000000000081526004016110a590612e0a565b60405180910390fd5b6110fb3382601160009054906101000a900473ffffffffffffffffffffffffffffffffffffffff1673ffffffffffffffffffffffffffffffffffffffff16611f029092919063ffffffff16565b50565b611106610d15565b15611146576040517f08c379a000000000000000000000000000000000000000000000000000000000815260040161113d90612dea565b60405180910390fd5b6000611151336115b0565b11611191576040517f08c379a000000000000000000000000000000000000000000000000000000000815260040161118890612e8a565b60405180910390fd5b600081116111d4576040517f08c379a00000000000000000000000000000000000000000000000000000000081526004016111cb90612eca565b60405180910390fd5b600a60003373ffffffffffffffffffffffffffffffffffffffff1673ffffffffffffffffffffffffffffffffffffffff1681526020019081526020016000205442118061122d5750601560009054906101000a900460ff165b61126c576040517f08c379a000000000000000000000000000000000000000000000000000000000815260040161126390612e2a565b60405180910390fd5b6112746108e2565b6000600b60003373ffffffffffffffffffffffffffffffffffffffff1673ffffffffffffffffffffffffffffffffffffffff1681526020019081526020016000205490506112cd82600354611e4990919063ffffffff16565b6003819055506112fa6112e98284611e1d90919063ffffffff16565b600454611e4990919063ffffffff16565b60048190555061135282600660003373ffffffffffffffffffffffffffffffffffffffff1673ffffffffffffffffffffffffffffffffffffffff16815260200190815260200160002054611e4990919063ffffffff16565b600660003373ffffffffffffffffffffffffffffffffffffffff1673ffffffffffffffffffffffffffffffffffffffff168152602001908152602001600020819055506113f96113ab8284611e1d90919063ffffffff16565b600760003373ffffffffffffffffffffffffffffffffffffffff1673ffffffffffffffffffffffffffffffffffffffff16815260200190815260200160002054611e4990919063ffffffff16565b600760003373ffffffffffffffffffffffffffffffffffffffff1673ffffffffffffffffffffffffffffffffffffffff168152602001908152602001600020819055506000600660003373ffffffffffffffffffffffffffffffffffffffff1673ffffffffffffffffffffffffffffffffffffffff16815260200190815260200160002054141561148e5761148d33611e5f565b5b6114db3383601060009054906101000a900473ffffffffffffffffffffffffffffffffffffffff1673ffffffffffffffffffffffffffffffffffffffff16611f029092919063ffffffff16565b3373ffffffffffffffffffffffffffffffffffffffff167f7084f5476618d8e60b11ef0d7d3f06914655adb8793e28ff7f018d4c76d505d5836040516115219190612eea565b60405180910390a25050565b60045481565b60135481565b6000600b60003373ffffffffffffffffffffffffffffffffffffffff1673ffffffffffffffffffffffffffffffffffffffff16815260200190815260200160002054905090565b60035481565b6000601160009054906101000a900473ffffffffffffffffffffffffffffffffffffffff16905090565b6000600660008373ffffffffffffffffffffffffffffffffffffffff1673ffffffffffffffffffffffffffffffffffffffff168152602001908152602001600020549050919050565b611601610d15565b15611641576040517f08c379a000000000000000000000000000000000000000000000000000000000815260040161163890612dea565b60405180910390fd5b60008211611684576040517f08c379a000000000000000000000000000000000000000000000000000000000815260040161167b90612d8a565b60405180910390fd5b60008111806116d357506000600660003373ffffffffffffffffffffffffffffffffffffffff1673ffffffffffffffffffffffffffffffffffffffff1681526020019081526020016000205414155b611712576040517f08c379a000000000000000000000000000000000000000000000000000000000815260040161170990612daa565b60405180910390fd5b600b60003373ffffffffffffffffffffffffffffffffffffffff1673ffffffffffffffffffffffffffffffffffffffff16815260200190815260200160002054611766600383611e0790919063ffffffff16565b1015806117b257506000600660003373ffffffffffffffffffffffffffffffffffffffff1673ffffffffffffffffffffffffffffffffffffffff16815260200190815260200160002054145b806117bd5750600081145b6117fc576040517f08c379a00000000000000000000000000000000000000000000000000000000081526004016117f390612d6a565b60405180910390fd5b6118058161229c565b6000600b60003373ffffffffffffffffffffffffffffffffffffffff1673ffffffffffffffffffffffffffffffffffffffff16815260200190815260200160002054905061185e83600354611e3390919063ffffffff16565b60038190555061188b61187a8285611e1d90919063ffffffff16565b600454611e3390919063ffffffff16565b6004819055506118996108e2565b6000600660003373ffffffffffffffffffffffffffffffffffffffff1673ffffffffffffffffffffffffffffffffffffffff168152602001908152602001600020541415611931576118ea33612596565b601454600960003373ffffffffffffffffffffffffffffffffffffffff1673ffffffffffffffffffffffffffffffffffffffff168152602001908152602001600020819055505b61198383600660003373ffffffffffffffffffffffffffffffffffffffff1673ffffffffffffffffffffffffffffffffffffffff16815260200190815260200160002054611e3390919063ffffffff16565b600660003373ffffffffffffffffffffffffffffffffffffffff1673ffffffffffffffffffffffffffffffffffffffff16815260200190815260200160002081905550611a2a6119dc8285611e1d90919063ffffffff16565b600760003373ffffffffffffffffffffffffffffffffffffffff1673ffffffffffffffffffffffffffffffffffffffff16815260200190815260200160002054611e3390919063ffffffff16565b600760003373ffffffffffffffffffffffffffffffffffffffff1673ffffffffffffffffffffffffffffffffffffffff16815260200190815260200160002081905550611abc333085601060009054906101000a900473ffffffffffffffffffffffffffffffffffffffff1673ffffffffffffffffffffffffffffffffffffffff16612213909392919063ffffffff16565b3373ffffffffffffffffffffffffffffffffffffffff167f9e71bc8eea02a63969f509818f2dafb9254532904319f9dbda79b67bd34a5f3d84604051611b029190612eea565b60405180910390a2505050565b6000601454905090565b611b21612002565b73ffffffffffffffffffffffffffffffffffffffff16611b3f611003565b73ffffffffffffffffffffffffffffffffffffffff1614611b95576040517f08c379a0000000000000000000000000000000000000000000000000000000008152600401611b8c90612e0a565b60405180910390fd5b601560009054906101000a900460ff1615601560006101000a81548160ff021916908315150217905550565b611bc9612002565b73ffffffffffffffffffffffffffffffffffffffff16611be7611003565b73ffffffffffffffffffffffffffffffffffffffff1614611c3d576040517f08c379a0000000000000000000000000000000000000000000000000000000008152600401611c3490612e0a565b60405180910390fd5b600073ffffffffffffffffffffffffffffffffffffffff168173ffffffffffffffffffffffffffffffffffffffff161415611cad576040517f08c379a0000000000000000000000000000000000000000000000000000000008152600401611ca490612d4a565b60405180910390fd5b611cb6816120ac565b50565b6000611cd060055442611e4990919063ffffffff16565b905090565b600080611d2c600960008573ffffffffffffffffffffffffffffffffffffffff1673ffffffffffffffffffffffffffffffffffffffff16815260200190815260200160002054601454611e4990919063ffffffff16565b90506000811115611dfc576000611df0601354611de2600b60008873ffffffffffffffffffffffffffffffffffffffff1673ffffffffffffffffffffffffffffffffffffffff16815260200190815260200160002054611dd4600660008a73ffffffffffffffffffffffffffffffffffffffff1673ffffffffffffffffffffffffffffffffffffffff1681526020019081526020016000205487611e1d90919063ffffffff16565b611e1d90919063ffffffff16565b611e0790919063ffffffff16565b90508092505050611e02565b60009150505b919050565b60008183611e159190612f8d565b905092915050565b60008183611e2b9190612fbe565b905092915050565b60008183611e419190612f37565b905092915050565b60008183611e579190613018565b905092915050565b611e67610d15565b15611ea7576040517f08c379a0000000000000000000000000000000000000000000000000000000008152600401611e9e90612dea565b60405180910390fd5b6000600860008373ffffffffffffffffffffffffffffffffffffffff1673ffffffffffffffffffffffffffffffffffffffff16815260200190815260200160002060006101000a81548160ff02191690831515021790555050565b611f838363a9059cbb60e01b8484604051602401611f21929190612cc4565b604051602081830303815290604052907bffffffffffffffffffffffffffffffffffffffffffffffffffffffff19166020820180517bffffffffffffffffffffffffffffffffffffffffffffffffffffffff8381831617835250505050612639565b505050565b6000611f92610d82565b6000611f9d33611cd5565b90506000811115611ff757601454600960008573ffffffffffffffffffffffffffffffffffffffff1673ffffffffffffffffffffffffffffffffffffffff1681526020019081526020016000208190555080915050611ffd565b60009150505b919050565b600033905090565b612012610d15565b612051576040517f08c379a000000000000000000000000000000000000000000000000000000000815260040161204890612d2a565b60405180910390fd5b6000600260006101000a81548160ff0219169083151502179055507f5db9ee0a495bf2e6ff9c91a7834c1ba4fdd244a5e8aa4e537bd38aeae4b073aa612095612002565b6040516120a29190612c72565b60405180910390a1565b60008060009054906101000a900473ffffffffffffffffffffffffffffffffffffffff169050816000806101000a81548173ffffffffffffffffffffffffffffffffffffffff021916908373ffffffffffffffffffffffffffffffffffffffff1602179055508173ffffffffffffffffffffffffffffffffffffffff168173ffffffffffffffffffffffffffffffffffffffff167f8be0079c531659141344cd1fd0a4f28419497f9722a3daafe3b4186f6b6457e060405160405180910390a35050565b612178610d15565b156121b8576040517f08c379a00000000000000000000000000000000000000000000000000000000081526004016121af90612dea565b60405180910390fd5b6001600260006101000a81548160ff0219169083151502179055507f62e78cea01bee320cd4e420270b5ea74000d11b0c9f74754ebdbfc544b05a2586121fc612002565b6040516122099190612c72565b60405180910390a1565b612296846323b872dd60e01b85858560405160240161223493929190612c8d565b604051602081830303815290604052907bffffffffffffffffffffffffffffffffffffffffffffffffffffffff19166020820180517bffffffffffffffffffffffffffffffffffffffffffffffffffffffff8381831617835250505050612639565b50505050565b600081101580156122ad5750600381105b156122b757612593565b600381101580156122c85750600681105b1561237157600c54600b60003373ffffffffffffffffffffffffffffffffffffffff1673ffffffffffffffffffffffffffffffffffffffff168152602001908152602001600020819055506123296277f88042611e3390919063ffffffff16565b600a60003373ffffffffffffffffffffffffffffffffffffffff1673ffffffffffffffffffffffffffffffffffffffff16815260200190815260200160002081905550612592565b600681101580156123825750600981105b1561242b57600d54600b60003373ffffffffffffffffffffffffffffffffffffffff1673ffffffffffffffffffffffffffffffffffffffff168152602001908152602001600020819055506123e362eff10042611e3390919063ffffffff16565b600a60003373ffffffffffffffffffffffffffffffffffffffff1673ffffffffffffffffffffffffffffffffffffffff16815260200190815260200160002081905550612591565b6009811015801561243c5750600c81105b156124e657600e54600b60003373ffffffffffffffffffffffffffffffffffffffff1673ffffffffffffffffffffffffffffffffffffffff1681526020019081526020016000208190555061249e630167e98042611e3390919063ffffffff16565b600a60003373ffffffffffffffffffffffffffffffffffffffff1673ffffffffffffffffffffffffffffffffffffffff16815260200190815260200160002081905550612590565b600c811061258f57600f54600b60003373ffffffffffffffffffffffffffffffffffffffff1673ffffffffffffffffffffffffffffffffffffffff1681526020019081526020016000208190555061254b6301e1338042611e3390919063ffffffff16565b600a60003373ffffffffffffffffffffffffffffffffffffffff1673ffffffffffffffffffffffffffffffffffffffff168152602001908152602001600020819055505b5b5b5b5b50565b61259e610d15565b156125de576040517f08c379a00000000000000000000000000000000000000000000000000000000081526004016125d590612dea565b60405180910390fd5b6001600860008373ffffffffffffffffffffffffffffffffffffffff1673ffffffffffffffffffffffffffffffffffffffff16815260200190815260200160002060006101000a81548160ff02191690831515021790555050565b600061269b826040518060400160405280602081526020017f5361666545524332303a206c6f772d6c6576656c2063616c6c206661696c65648152508573ffffffffffffffffffffffffffffffffffffffff166127009092919063ffffffff16565b90506000815111156126fb57808060200190518101906126bb9190612923565b6126fa576040517f08c379a00000000000000000000000000000000000000000000000000000000081526004016126f190612e6a565b60405180910390fd5b5b505050565b606061270f8484600085612718565b90509392505050565b60608247101561275d576040517f08c379a000000000000000000000000000000000000000000000000000000000815260040161275490612dca565b60405180910390fd5b6127668561282c565b6127a5576040517f08c379a000000000000000000000000000000000000000000000000000000000815260040161279c90612e4a565b60405180910390fd5b6000808673ffffffffffffffffffffffffffffffffffffffff1685876040516127ce9190612c5b565b60006040518083038185875af1925050503d806000811461280b576040519150601f19603f3d011682016040523d82523d6000602084013e612810565b606091505b509150915061282082828661283f565b92505050949350505050565b600080823b905060008111915050919050565b6060831561284f5782905061289f565b6000835111156128625782518084602001fd5b816040517f08c379a00000000000000000000000000000000000000000000000000000000081526004016128969190612d08565b60405180910390fd5b9392505050565b6000813590506128b581613458565b92915050565b6000815190506128ca8161346f565b92915050565b6000813590506128df81613486565b92915050565b6000815190506128f481613486565b92915050565b60006020828403121561290c57600080fd5b600061291a848285016128a6565b91505092915050565b60006020828403121561293557600080fd5b6000612943848285016128bb565b91505092915050565b60006020828403121561295e57600080fd5b600061296c848285016128d0565b91505092915050565b60006020828403121561298757600080fd5b6000612995848285016128e5565b91505092915050565b600080604083850312156129b157600080fd5b60006129bf858286016128d0565b92505060206129d0858286016128d0565b9150509250929050565b6129e38161304c565b82525050565b6129f28161305e565b82525050565b6000612a0382612f05565b612a0d8185612f1b565b9350612a1d818560208601613094565b80840191505092915050565b6000612a3482612f10565b612a3e8185612f26565b9350612a4e818560208601613094565b612a5781613125565b840191505092915050565b6000612a6f601483612f26565b9150612a7a82613136565b602082019050919050565b6000612a92602683612f26565b9150612a9d8261315f565b604082019050919050565b6000612ab5602383612f26565b9150612ac0826131ae565b604082019050919050565b6000612ad8600e83612f26565b9150612ae3826131fd565b602082019050919050565b6000612afb602a83612f26565b9150612b0682613226565b604082019050919050565b6000612b1e602683612f26565b9150612b2982613275565b604082019050919050565b6000612b41601083612f26565b9150612b4c826132c4565b602082019050919050565b6000612b64602083612f26565b9150612b6f826132ed565b602082019050919050565b6000612b87602583612f26565b9150612b9282613316565b604082019050919050565b6000612baa601d83612f26565b9150612bb582613365565b602082019050919050565b6000612bcd602a83612f26565b9150612bd88261338e565b604082019050919050565b6000612bf0601b83612f26565b9150612bfb826133dd565b602082019050919050565b6000612c13601f83612f26565b9150612c1e82613406565b602082019050919050565b6000612c36600f83612f26565b9150612c418261342f565b602082019050919050565b612c558161308a565b82525050565b6000612c6782846129f8565b915081905092915050565b6000602082019050612c8760008301846129da565b92915050565b6000606082019050612ca260008301866129da565b612caf60208301856129da565b612cbc6040830184612c4c565b949350505050565b6000604082019050612cd960008301856129da565b612ce66020830184612c4c565b9392505050565b6000602082019050612d0260008301846129e9565b92915050565b60006020820190508181036000830152612d228184612a29565b905092915050565b60006020820190508181036000830152612d4381612a62565b9050919050565b60006020820190508181036000830152612d6381612a85565b9050919050565b60006020820190508181036000830152612d8381612aa8565b9050919050565b60006020820190508181036000830152612da381612acb565b9050919050565b60006020820190508181036000830152612dc381612aee565b9050919050565b60006020820190508181036000830152612de381612b11565b9050919050565b60006020820190508181036000830152612e0381612b34565b9050919050565b60006020820190508181036000830152612e2381612b57565b9050919050565b60006020820190508181036000830152612e4381612b7a565b9050919050565b60006020820190508181036000830152612e6381612b9d565b9050919050565b60006020820190508181036000830152612e8381612bc0565b9050919050565b60006020820190508181036000830152612ea381612be3565b9050919050565b60006020820190508181036000830152612ec381612c06565b9050919050565b60006020820190508181036000830152612ee381612c29565b9050919050565b6000602082019050612eff6000830184612c4c565b92915050565b600081519050919050565b600081519050919050565b600081905092915050565b600082825260208201905092915050565b6000612f428261308a565b9150612f4d8361308a565b9250827fffffffffffffffffffffffffffffffffffffffffffffffffffffffffffffffff03821115612f8257612f816130c7565b5b828201905092915050565b6000612f988261308a565b9150612fa38361308a565b925082612fb357612fb26130f6565b5b828204905092915050565b6000612fc98261308a565b9150612fd48361308a565b9250817fffffffffffffffffffffffffffffffffffffffffffffffffffffffffffffffff048311821515161561300d5761300c6130c7565b5b828202905092915050565b60006130238261308a565b915061302e8361308a565b925082821015613041576130406130c7565b5b828203905092915050565b60006130578261306a565b9050919050565b60008115159050919050565b600073ffffffffffffffffffffffffffffffffffffffff82169050919050565b6000819050919050565b60005b838110156130b2578082015181840152602081019050613097565b838111156130c1576000848401525b50505050565b7f4e487b7100000000000000000000000000000000000000000000000000000000600052601160045260246000fd5b7f4e487b7100000000000000000000000000000000000000000000000000000000600052601260045260246000fd5b6000601f19601f8301169050919050565b7f5061757361626c653a206e6f7420706175736564000000000000000000000000600082015250565b7f4f776e61626c653a206e6577206f776e657220697320746865207a65726f206160008201527f6464726573730000000000000000000000000000000000000000000000000000602082015250565b7f596f752063616e27742072656475636520796f7572207374616b696e6720746960008201527f6d65210000000000000000000000000000000000000000000000000000000000602082015250565b7f43616e6e6f74207374616b652030000000000000000000000000000000000000600082015250565b7f596f75206e6565642061206475726174696f6e20666f7220796f757220696e6960008201527f7469616c207374616b6500000000000000000000000000000000000000000000602082015250565b7f416464726573733a20696e73756666696369656e742062616c616e636520666f60008201527f722063616c6c0000000000000000000000000000000000000000000000000000602082015250565b7f5061757361626c653a2070617573656400000000000000000000000000000000600082015250565b7f4f776e61626c653a2063616c6c6572206973206e6f7420746865206f776e6572600082015250565b7f596f7572207374616b696e6720746f6b656e7320617265207374696c6c206c6f60008201527f636b656421000000000000000000000000000000000000000000000000000000602082015250565b7f416464726573733a2063616c6c20746f206e6f6e2d636f6e7472616374000000600082015250565b7f5361666545524332303a204552433230206f7065726174696f6e20646964206e60008201527f6f74207375636365656400000000000000000000000000000000000000000000602082015250565b7f596f75277265206e6f74207374616b696e6720616e797468696e670000000000600082015250565b7f5265656e7472616e637947756172643a207265656e7472616e742063616c6c00600082015250565b7f43616e6e6f742072656d6f766520300000000000000000000000000000000000600082015250565b6134618161304c565b811461346c57600080fd5b50565b6134788161305e565b811461348357600080fd5b50565b61348f8161308a565b811461349a57600080fd5b5056fea26469706673582212206b5af7fcf5cbc571e0b2901e4ce1a27d3c01dff41890c4b572a044cb801ccbf564736f6c63430008040033",
  "linkReferences": {},
  "deployedLinkReferences": {}
}