{
  "_format": "hh-sol-artifact-1",
  "contractName": "RaiderStaking",
  "sourceName": "contracts/RaiderStaking.sol",
  "abi": [
    {
      "inputs": [
        {
          "internalType": "address",
          "name": "_stakingToken",
          "type": "address"
        },
        {
          "internalType": "address",
          "name": "_rewardToken",
          "type": "address"
        }
      ],
      "stateMutability": "nonpayable",
      "type": "constructor"
    },
    {
      "anonymous": false,
      "inputs": [
        {
          "indexed": true,
          "internalType": "address",
          "name": "previousOwner",
          "type": "address"
        },
        {
          "indexed": true,
          "internalType": "address",
          "name": "newOwner",
          "type": "address"
        }
      ],
      "name": "OwnershipTransferred",
      "type": "event"
    },
    {
      "anonymous": false,
      "inputs": [
        {
          "indexed": false,
          "internalType": "address",
          "name": "account",
          "type": "address"
        }
      ],
      "name": "Paused",
      "type": "event"
    },
    {
      "anonymous": false,
      "inputs": [
        {
          "indexed": false,
          "internalType": "uint256",
          "name": "reward",
          "type": "uint256"
        }
      ],
      "name": "RewardAdded",
      "type": "event"
    },
    {
      "anonymous": false,
      "inputs": [
        {
          "indexed": true,
          "internalType": "address",
          "name": "user",
          "type": "address"
        },
        {
          "indexed": false,
          "internalType": "uint256",
          "name": "reward",
          "type": "uint256"
        }
      ],
      "name": "RewardPaid",
      "type": "event"
    },
    {
      "anonymous": false,
      "inputs": [
        {
          "indexed": true,
          "internalType": "address",
          "name": "user",
          "type": "address"
        },
        {
          "indexed": false,
          "internalType": "uint256",
          "name": "amount",
          "type": "uint256"
        }
      ],
      "name": "Staked",
      "type": "event"
    },
    {
      "anonymous": false,
      "inputs": [
        {
          "indexed": false,
          "internalType": "address",
          "name": "account",
          "type": "address"
        }
      ],
      "name": "Unpaused",
      "type": "event"
    },
    {
      "anonymous": false,
      "inputs": [
        {
          "indexed": true,
          "internalType": "address",
          "name": "user",
          "type": "address"
        },
        {
          "indexed": false,
          "internalType": "uint256",
          "name": "amount",
          "type": "uint256"
        }
      ],
      "name": "Withdrawn",
      "type": "event"
    },
    {
      "inputs": [
        {
          "internalType": "address",
          "name": "_address",
          "type": "address"
        }
      ],
      "name": "addressStakedBalance",
      "outputs": [
        {
          "internalType": "uint256",
          "name": "",
          "type": "uint256"
        }
      ],
      "stateMutability": "view",
      "type": "function"
    },
    {
      "inputs": [],
      "name": "bigMultiplier",
      "outputs": [
        {
          "internalType": "uint256",
          "name": "",
          "type": "uint256"
        }
      ],
      "stateMutability": "view",
      "type": "function"
    },
    {
      "inputs": [
        {
          "internalType": "uint256",
          "name": "_amount",
          "type": "uint256"
        }
      ],
      "name": "createStake",
      "outputs": [],
      "stateMutability": "nonpayable",
      "type": "function"
    },
    {
      "inputs": [],
      "name": "dailyEmissionsRate",
      "outputs": [
        {
          "internalType": "uint256",
          "name": "",
          "type": "uint256"
        }
      ],
      "stateMutability": "view",
      "type": "function"
    },
    {
      "inputs": [
        {
          "internalType": "uint256",
          "name": "_amount",
          "type": "uint256"
        }
      ],
      "name": "depositRewards",
      "outputs": [],
      "stateMutability": "nonpayable",
      "type": "function"
    },
    {
      "inputs": [
        {
          "internalType": "uint256",
          "name": "_amount",
          "type": "uint256"
        }
      ],
      "name": "emergencyUnstake",
      "outputs": [],
      "stateMutability": "nonpayable",
      "type": "function"
    },
    {
      "inputs": [],
      "name": "getRewards",
      "outputs": [],
      "stateMutability": "nonpayable",
      "type": "function"
    },
    {
      "inputs": [
        {
          "internalType": "address",
          "name": "_address",
          "type": "address"
        }
      ],
      "name": "isStaker",
      "outputs": [
        {
          "internalType": "bool",
          "name": "",
          "type": "bool"
        }
      ],
      "stateMutability": "view",
      "type": "function"
    },
    {
      "inputs": [],
      "name": "lastRewardTime",
      "outputs": [
        {
          "internalType": "uint256",
          "name": "",
          "type": "uint256"
        }
      ],
      "stateMutability": "view",
      "type": "function"
    },
    {
      "inputs": [],
      "name": "owner",
      "outputs": [
        {
          "internalType": "address",
          "name": "",
          "type": "address"
        }
      ],
      "stateMutability": "view",
      "type": "function"
    },
    {
      "inputs": [],
      "name": "pause",
      "outputs": [],
      "stateMutability": "nonpayable",
      "type": "function"
    },
    {
      "inputs": [],
      "name": "paused",
      "outputs": [
        {
          "internalType": "bool",
          "name": "",
          "type": "bool"
        }
      ],
      "stateMutability": "view",
      "type": "function"
    },
    {
      "inputs": [
        {
          "internalType": "uint256",
          "name": "_amount",
          "type": "uint256"
        }
      ],
      "name": "removeStake",
      "outputs": [],
      "stateMutability": "nonpayable",
      "type": "function"
    },
    {
      "inputs": [],
      "name": "renounceOwnership",
      "outputs": [],
      "stateMutability": "nonpayable",
      "type": "function"
    },
    {
      "inputs": [],
      "name": "rewardsBalance",
      "outputs": [
        {
          "internalType": "uint256",
          "name": "",
          "type": "uint256"
        }
      ],
      "stateMutability": "view",
      "type": "function"
    },
    {
      "inputs": [
        {
          "internalType": "uint256",
          "name": "_amount",
          "type": "uint256"
        }
      ],
      "name": "setDailyEmissions",
      "outputs": [],
      "stateMutability": "nonpayable",
      "type": "function"
    },
    {
      "inputs": [],
      "name": "showBigRewardsPerToken",
      "outputs": [
        {
          "internalType": "uint256",
          "name": "",
          "type": "uint256"
        }
      ],
      "stateMutability": "view",
      "type": "function"
    },
    {
      "inputs": [],
      "name": "showBigUserRewardsCollected",
      "outputs": [
        {
          "internalType": "uint256",
          "name": "",
          "type": "uint256"
        }
      ],
      "stateMutability": "view",
      "type": "function"
    },
    {
      "inputs": [],
      "name": "showRewardToken",
      "outputs": [
        {
          "internalType": "address",
          "name": "",
          "type": "address"
        }
      ],
      "stateMutability": "view",
      "type": "function"
    },
    {
      "inputs": [],
      "name": "showStakingToken",
      "outputs": [
        {
          "internalType": "address",
          "name": "",
          "type": "address"
        }
      ],
      "stateMutability": "view",
      "type": "function"
    },
    {
      "inputs": [],
      "name": "timeSinceLastReward",
      "outputs": [
        {
          "internalType": "uint256",
          "name": "",
          "type": "uint256"
        }
      ],
      "stateMutability": "view",
      "type": "function"
    },
    {
      "inputs": [],
      "name": "totalStakedSupply",
      "outputs": [
        {
          "internalType": "uint256",
          "name": "",
          "type": "uint256"
        }
      ],
      "stateMutability": "view",
      "type": "function"
    },
    {
      "inputs": [
        {
          "internalType": "address",
          "name": "newOwner",
          "type": "address"
        }
      ],
      "name": "transferOwnership",
      "outputs": [],
      "stateMutability": "nonpayable",
      "type": "function"
    },
    {
      "inputs": [],
      "name": "unpause",
      "outputs": [],
      "stateMutability": "nonpayable",
      "type": "function"
    },
    {
      "inputs": [
        {
          "internalType": "address",
          "name": "_address",
          "type": "address"
        }
      ],
      "name": "updateAddressRewardsBalance",
      "outputs": [
        {
          "internalType": "uint256",
          "name": "",
          "type": "uint256"
        }
      ],
      "stateMutability": "nonpayable",
      "type": "function"
    },
    {
      "inputs": [],
      "name": "updateBigRewardsPerToken",
      "outputs": [],
      "stateMutability": "nonpayable",
      "type": "function"
    },
    {
      "inputs": [
        {
          "internalType": "address",
          "name": "_address",
          "type": "address"
        }
      ],
      "name": "userPendingRewards",
      "outputs": [
        {
          "internalType": "uint256",
          "name": "",
          "type": "uint256"
        }
      ],
      "stateMutability": "view",
      "type": "function"
    },
    {
      "inputs": [
        {
          "internalType": "uint256",
          "name": "_amount",
          "type": "uint256"
        }
      ],
      "name": "withdrawRewards",
      "outputs": [],
      "stateMutability": "nonpayable",
      "type": "function"
    }
  ],
  "bytecode": "0x6080604052670de0b6b3a7640000600655670de0b6b3a7640000600b553480156200002957600080fd5b5060405162002c9438038062002c9483398181016040528101906200004f919062000382565b6200006f620000636200014360201b60201c565b6200014b60201b60201c565b600180819055506000600260006101000a81548160ff02191690831515021790555081600860006101000a81548173ffffffffffffffffffffffffffffffffffffffff021916908373ffffffffffffffffffffffffffffffffffffffff16021790555080600960006101000a81548173ffffffffffffffffffffffffffffffffffffffff021916908373ffffffffffffffffffffffffffffffffffffffff1602179055504260078190555069017348f7fc715a640000600a819055506200013b6200020f60201b60201c565b5050620005aa565b600033905090565b60008060009054906101000a900473ffffffffffffffffffffffffffffffffffffffff169050816000806101000a81548173ffffffffffffffffffffffffffffffffffffffff021916908373ffffffffffffffffffffffffffffffffffffffff1602179055508173ffffffffffffffffffffffffffffffffffffffff168173ffffffffffffffffffffffffffffffffffffffff167f8be0079c531659141344cd1fd0a4f28419497f9722a3daafe3b4186f6b6457e060405160405180910390a35050565b600062000221620002e860201b60201c565b1115620002e65760006200023a620002e860201b60201c565b90504260078190555060006200026462015180600a546200030b60201b620015e01790919060201c565b905060006200028283836200032360201b620015f61790919060201c565b90506000620002bd600654620002a9600b54856200032360201b620015f61790919060201c565b6200030b60201b620015e01790919060201c565b9050620002db81600c546200033b60201b6200160c1790919060201c565b600c81905550505050505b565b600062000306600754426200035360201b620016221790919060201c565b905090565b600081836200031b919062000420565b905092915050565b6000818362000333919062000458565b905092915050565b600081836200034b9190620003c3565b905092915050565b60008183620003639190620004b9565b905092915050565b6000815190506200037c8162000590565b92915050565b600080604083850312156200039657600080fd5b6000620003a6858286016200036b565b9250506020620003b9858286016200036b565b9150509250929050565b6000620003d08262000528565b9150620003dd8362000528565b9250827fffffffffffffffffffffffffffffffffffffffffffffffffffffffffffffffff0382111562000415576200041462000532565b5b828201905092915050565b60006200042d8262000528565b91506200043a8362000528565b9250826200044d576200044c62000561565b5b828204905092915050565b6000620004658262000528565b9150620004728362000528565b9250817fffffffffffffffffffffffffffffffffffffffffffffffffffffffffffffffff0483118215151615620004ae57620004ad62000532565b5b828202905092915050565b6000620004c68262000528565b9150620004d38362000528565b925082821015620004e957620004e862000532565b5b828203905092915050565b6000620005018262000508565b9050919050565b600073ffffffffffffffffffffffffffffffffffffffff82169050919050565b6000819050919050565b7f4e487b7100000000000000000000000000000000000000000000000000000000600052601160045260246000fd5b7f4e487b7100000000000000000000000000000000000000000000000000000000600052601260045260246000fd5b6200059b81620004f4565b8114620005a757600080fd5b50565b6126da80620005ba6000396000f3fe608060405234801561001057600080fd5b50600436106101c45760003560e01c80638bdf67f2116100f9578063bcdc3cfc11610097578063d8a839ed11610071578063d8a839ed1461045f578063f2fde38b1461047d578063fadac5c014610499578063fc9d7711146104b7576101c4565b8063bcdc3cfc146103f3578063cb3992be14610411578063d774cdd01461042f576101c4565b80639342c8f4116100d35780639342c8f41461036d578063939624ab14610389578063a3839bb2146103a5578063a8ce4a90146103c3576101c4565b80638bdf67f2146103155780638da5cb5b146103315780639231cf741461034f576101c4565b80633f4ba83a116101665780636f1e8533116101405780636f1e8533146102c7578063701f53ba146102f7578063715018a6146103015780638456cb591461030b576101c4565b80633f4ba83a146102815780634b1cfea01461028b5780635c975abb146102a9576101c4565b8063136e9352116101a2578063136e93521461020d5780631bf6ddae1461022b57806333a00bb814610247578063366667aa14610265576101c4565b8063012ce501146101c95780630572b0cc146101e5578063131f2e53146101ef575b600080fd5b6101e360048036038101906101de9190611db1565b6104e7565b005b6101ed6106ca565b005b6101f761081c565b6040516102049190612207565b60405180910390f35b6102156108ce565b6040516102229190612207565b60405180910390f35b61024560048036038101906102409190611db1565b6108d4565b005b61024f610b4f565b60405161025c919061200f565b60405180910390f35b61027f600480360381019061027a9190611db1565b610b79565b005b610289610bff565b005b610293610c85565b6040516102a09190612207565b60405180910390f35b6102b1610ccc565b6040516102be919061208a565b60405180910390f35b6102e160048036038101906102dc9190611d5f565b610ce3565b6040516102ee919061208a565b60405180910390f35b6102ff610d39565b005b610309610dde565b005b610313610e66565b005b61032f600480360381019061032a9190611db1565b610eec565b005b610339610fba565b604051610346919061200f565b60405180910390f35b610357610fe3565b6040516103649190612207565b60405180910390f35b61038760048036038101906103829190611db1565b610fe9565b005b6103a3600480360381019061039e9190611db1565b6110b5565b005b6103ad6112e8565b6040516103ba9190612207565b60405180910390f35b6103dd60048036038101906103d89190611d5f565b6112ee565b6040516103ea9190612207565b60405180910390f35b6103fb611368565b6040516104089190612207565b60405180910390f35b61041961136e565b604051610426919061200f565b60405180910390f35b61044960048036038101906104449190611d5f565b611398565b6040516104569190612207565b60405180910390f35b6104676113e1565b6040516104749190612207565b60405180910390f35b61049760048036038101906104929190611d5f565b6113eb565b005b6104a16114e3565b6040516104ae9190612207565b60405180910390f35b6104d160048036038101906104cc9190611d5f565b6114ff565b6040516104de9190612207565b60405180910390f35b6000811161052a576040517f08c379a0000000000000000000000000000000000000000000000000000000008152600401610521906121e7565b60405180910390fd5b61053f8160065461162290919063ffffffff16565b60068190555061059781600460003373ffffffffffffffffffffffffffffffffffffffff1673ffffffffffffffffffffffffffffffffffffffff1681526020019081526020016000205461162290919063ffffffff16565b600460003373ffffffffffffffffffffffffffffffffffffffff1673ffffffffffffffffffffffffffffffffffffffff168152602001908152602001600020819055506000600460003373ffffffffffffffffffffffffffffffffffffffff1673ffffffffffffffffffffffffffffffffffffffff16815260200190815260200160002054141561062c5761062b33611638565b5b6106793382600860009054906101000a900473ffffffffffffffffffffffffffffffffffffffff1673ffffffffffffffffffffffffffffffffffffffff166116db9092919063ffffffff16565b3373ffffffffffffffffffffffffffffffffffffffff167f7084f5476618d8e60b11ef0d7d3f06914655adb8793e28ff7f018d4c76d505d5826040516106bf9190612207565b60405180910390a250565b60026001541415610710576040517f08c379a0000000000000000000000000000000000000000000000000000000008152600401610707906121c7565b60405180910390fd5b6002600181905550610720610ccc565b15610760576040517f08c379a000000000000000000000000000000000000000000000000000000000815260040161075790612147565b60405180910390fd5b600061076b336112ee565b90506000811115610812576107c33382600960009054906101000a900473ffffffffffffffffffffffffffffffffffffffff1673ffffffffffffffffffffffffffffffffffffffff166116db9092919063ffffffff16565b3373ffffffffffffffffffffffffffffffffffffffff167fe2403640ba68fed3a2f88b7557551d1993f84b99bb10ff833f0cf8db0c5e0486826040516108099190612207565b60405180910390a25b5060018081905550565b6000600960009054906101000a900473ffffffffffffffffffffffffffffffffffffffff1673ffffffffffffffffffffffffffffffffffffffff166370a08231306040518263ffffffff1660e01b8152600401610879919061200f565b60206040518083038186803b15801561089157600080fd5b505afa1580156108a5573d6000803e3d6000fd5b505050506040513d601f19601f820116820180604052508101906108c99190611dda565b905090565b600a5481565b6108dc610ccc565b1561091c576040517f08c379a000000000000000000000000000000000000000000000000000000000815260040161091390612147565b60405180910390fd5b6000811161095f576040517f08c379a000000000000000000000000000000000000000000000000000000000815260040161095690612107565b60405180910390fd5b6109748160065461160c90919063ffffffff16565b6006819055506109826106ca565b6000600460003373ffffffffffffffffffffffffffffffffffffffff1673ffffffffffffffffffffffffffffffffffffffff168152602001908152602001600020541415610a1a576109d333611761565b600c54600560003373ffffffffffffffffffffffffffffffffffffffff1673ffffffffffffffffffffffffffffffffffffffff168152602001908152602001600020819055505b610a6c81600460003373ffffffffffffffffffffffffffffffffffffffff1673ffffffffffffffffffffffffffffffffffffffff1681526020019081526020016000205461160c90919063ffffffff16565b600460003373ffffffffffffffffffffffffffffffffffffffff1673ffffffffffffffffffffffffffffffffffffffff16815260200190815260200160002081905550610afe333083600860009054906101000a900473ffffffffffffffffffffffffffffffffffffffff1673ffffffffffffffffffffffffffffffffffffffff16611804909392919063ffffffff16565b3373ffffffffffffffffffffffffffffffffffffffff167f9e71bc8eea02a63969f509818f2dafb9254532904319f9dbda79b67bd34a5f3d82604051610b449190612207565b60405180910390a250565b6000600860009054906101000a900473ffffffffffffffffffffffffffffffffffffffff16905090565b610b8161188d565b73ffffffffffffffffffffffffffffffffffffffff16610b9f610fba565b73ffffffffffffffffffffffffffffffffffffffff1614610bf5576040517f08c379a0000000000000000000000000000000000000000000000000000000008152600401610bec90612167565b60405180910390fd5b80600a8190555050565b610c0761188d565b73ffffffffffffffffffffffffffffffffffffffff16610c25610fba565b73ffffffffffffffffffffffffffffffffffffffff1614610c7b576040517f08c379a0000000000000000000000000000000000000000000000000000000008152600401610c7290612167565b60405180910390fd5b610c83611895565b565b6000600560003373ffffffffffffffffffffffffffffffffffffffff1673ffffffffffffffffffffffffffffffffffffffff16815260200190815260200160002054905090565b6000600260009054906101000a900460ff16905090565b6000600360008373ffffffffffffffffffffffffffffffffffffffff1673ffffffffffffffffffffffffffffffffffffffff16815260200190815260200160002060009054906101000a900460ff169050919050565b6000610d436114e3565b1115610ddc576000610d536114e3565b9050426007819055506000610d7662015180600a546115e090919063ffffffff16565b90506000610d8d83836115f690919063ffffffff16565b90506000610dba600654610dac600b54856115f690919063ffffffff16565b6115e090919063ffffffff16565b9050610dd181600c5461160c90919063ffffffff16565b600c81905550505050505b565b610de661188d565b73ffffffffffffffffffffffffffffffffffffffff16610e04610fba565b73ffffffffffffffffffffffffffffffffffffffff1614610e5a576040517f08c379a0000000000000000000000000000000000000000000000000000000008152600401610e5190612167565b60405180910390fd5b610e646000611937565b565b610e6e61188d565b73ffffffffffffffffffffffffffffffffffffffff16610e8c610fba565b73ffffffffffffffffffffffffffffffffffffffff1614610ee2576040517f08c379a0000000000000000000000000000000000000000000000000000000008152600401610ed990612167565b60405180910390fd5b610eea6119fb565b565b610ef461188d565b73ffffffffffffffffffffffffffffffffffffffff16610f12610fba565b73ffffffffffffffffffffffffffffffffffffffff1614610f68576040517f08c379a0000000000000000000000000000000000000000000000000000000008152600401610f5f90612167565b60405180910390fd5b610fb7333083600960009054906101000a900473ffffffffffffffffffffffffffffffffffffffff1673ffffffffffffffffffffffffffffffffffffffff16611804909392919063ffffffff16565b50565b60008060009054906101000a900473ffffffffffffffffffffffffffffffffffffffff16905090565b60075481565b610ff161188d565b73ffffffffffffffffffffffffffffffffffffffff1661100f610fba565b73ffffffffffffffffffffffffffffffffffffffff1614611065576040517f08c379a000000000000000000000000000000000000000000000000000000000815260040161105c90612167565b60405180910390fd5b6110b23382600960009054906101000a900473ffffffffffffffffffffffffffffffffffffffff1673ffffffffffffffffffffffffffffffffffffffff166116db9092919063ffffffff16565b50565b6110bd610ccc565b156110fd576040517f08c379a00000000000000000000000000000000000000000000000000000000081526004016110f490612147565b60405180910390fd5b60008111611140576040517f08c379a0000000000000000000000000000000000000000000000000000000008152600401611137906121e7565b60405180910390fd5b6111486106ca565b61115d8160065461162290919063ffffffff16565b6006819055506111b581600460003373ffffffffffffffffffffffffffffffffffffffff1673ffffffffffffffffffffffffffffffffffffffff1681526020019081526020016000205461162290919063ffffffff16565b600460003373ffffffffffffffffffffffffffffffffffffffff1673ffffffffffffffffffffffffffffffffffffffff168152602001908152602001600020819055506000600460003373ffffffffffffffffffffffffffffffffffffffff1673ffffffffffffffffffffffffffffffffffffffff16815260200190815260200160002054141561124a5761124933611638565b5b6112973382600860009054906101000a900473ffffffffffffffffffffffffffffffffffffffff1673ffffffffffffffffffffffffffffffffffffffff166116db9092919063ffffffff16565b3373ffffffffffffffffffffffffffffffffffffffff167f7084f5476618d8e60b11ef0d7d3f06914655adb8793e28ff7f018d4c76d505d5826040516112dd9190612207565b60405180910390a250565b600b5481565b60006112f8610d39565b6000611303336114ff565b9050600081111561135d57600c54600560008573ffffffffffffffffffffffffffffffffffffffff1673ffffffffffffffffffffffffffffffffffffffff1681526020019081526020016000208190555080915050611363565b60009150505b919050565b60065481565b6000600960009054906101000a900473ffffffffffffffffffffffffffffffffffffffff16905090565b6000600460008373ffffffffffffffffffffffffffffffffffffffff1673ffffffffffffffffffffffffffffffffffffffff168152602001908152602001600020549050919050565b6000600c54905090565b6113f361188d565b73ffffffffffffffffffffffffffffffffffffffff16611411610fba565b73ffffffffffffffffffffffffffffffffffffffff1614611467576040517f08c379a000000000000000000000000000000000000000000000000000000000815260040161145e90612167565b60405180910390fd5b600073ffffffffffffffffffffffffffffffffffffffff168173ffffffffffffffffffffffffffffffffffffffff1614156114d7576040517f08c379a00000000000000000000000000000000000000000000000000000000081526004016114ce906120e7565b60405180910390fd5b6114e081611937565b50565b60006114fa6007544261162290919063ffffffff16565b905090565b600080611556600560008573ffffffffffffffffffffffffffffffffffffffff1673ffffffffffffffffffffffffffffffffffffffff16815260200190815260200160002054600c5461162290919063ffffffff16565b905060008111156115d55760006115c9600b546115bb600460008873ffffffffffffffffffffffffffffffffffffffff1673ffffffffffffffffffffffffffffffffffffffff16815260200190815260200160002054856115f690919063ffffffff16565b6115e090919063ffffffff16565b905080925050506115db565b60009150505b919050565b600081836115ee91906122aa565b905092915050565b6000818361160491906122db565b905092915050565b6000818361161a9190612254565b905092915050565b600081836116309190612335565b905092915050565b611640610ccc565b15611680576040517f08c379a000000000000000000000000000000000000000000000000000000000815260040161167790612147565b60405180910390fd5b6000600360008373ffffffffffffffffffffffffffffffffffffffff1673ffffffffffffffffffffffffffffffffffffffff16815260200190815260200160002060006101000a81548160ff02191690831515021790555050565b61175c8363a9059cbb60e01b84846040516024016116fa929190612061565b604051602081830303815290604052907bffffffffffffffffffffffffffffffffffffffffffffffffffffffff19166020820180517bffffffffffffffffffffffffffffffffffffffffffffffffffffffff8381831617835250505050611a9e565b505050565b611769610ccc565b156117a9576040517f08c379a00000000000000000000000000000000000000000000000000000000081526004016117a090612147565b60405180910390fd5b6001600360008373ffffffffffffffffffffffffffffffffffffffff1673ffffffffffffffffffffffffffffffffffffffff16815260200190815260200160002060006101000a81548160ff02191690831515021790555050565b611887846323b872dd60e01b8585856040516024016118259392919061202a565b604051602081830303815290604052907bffffffffffffffffffffffffffffffffffffffffffffffffffffffff19166020820180517bffffffffffffffffffffffffffffffffffffffffffffffffffffffff8381831617835250505050611a9e565b50505050565b600033905090565b61189d610ccc565b6118dc576040517f08c379a00000000000000000000000000000000000000000000000000000000081526004016118d3906120c7565b60405180910390fd5b6000600260006101000a81548160ff0219169083151502179055507f5db9ee0a495bf2e6ff9c91a7834c1ba4fdd244a5e8aa4e537bd38aeae4b073aa61192061188d565b60405161192d919061200f565b60405180910390a1565b60008060009054906101000a900473ffffffffffffffffffffffffffffffffffffffff169050816000806101000a81548173ffffffffffffffffffffffffffffffffffffffff021916908373ffffffffffffffffffffffffffffffffffffffff1602179055508173ffffffffffffffffffffffffffffffffffffffff168173ffffffffffffffffffffffffffffffffffffffff167f8be0079c531659141344cd1fd0a4f28419497f9722a3daafe3b4186f6b6457e060405160405180910390a35050565b611a03610ccc565b15611a43576040517f08c379a0000000000000000000000000000000000000000000000000000000008152600401611a3a90612147565b60405180910390fd5b6001600260006101000a81548160ff0219169083151502179055507f62e78cea01bee320cd4e420270b5ea74000d11b0c9f74754ebdbfc544b05a258611a8761188d565b604051611a94919061200f565b60405180910390a1565b6000611b00826040518060400160405280602081526020017f5361666545524332303a206c6f772d6c6576656c2063616c6c206661696c65648152508573ffffffffffffffffffffffffffffffffffffffff16611b659092919063ffffffff16565b9050600081511115611b605780806020019051810190611b209190611d88565b611b5f576040517f08c379a0000000000000000000000000000000000000000000000000000000008152600401611b56906121a7565b60405180910390fd5b5b505050565b6060611b748484600085611b7d565b90509392505050565b606082471015611bc2576040517f08c379a0000000000000000000000000000000000000000000000000000000008152600401611bb990612127565b60405180910390fd5b611bcb85611c91565b611c0a576040517f08c379a0000000000000000000000000000000000000000000000000000000008152600401611c0190612187565b60405180910390fd5b6000808673ffffffffffffffffffffffffffffffffffffffff168587604051611c339190611ff8565b60006040518083038185875af1925050503d8060008114611c70576040519150601f19603f3d011682016040523d82523d6000602084013e611c75565b606091505b5091509150611c85828286611ca4565b92505050949350505050565b600080823b905060008111915050919050565b60608315611cb457829050611d04565b600083511115611cc75782518084602001fd5b816040517f08c379a0000000000000000000000000000000000000000000000000000000008152600401611cfb91906120a5565b60405180910390fd5b9392505050565b600081359050611d1a8161265f565b92915050565b600081519050611d2f81612676565b92915050565b600081359050611d448161268d565b92915050565b600081519050611d598161268d565b92915050565b600060208284031215611d7157600080fd5b6000611d7f84828501611d0b565b91505092915050565b600060208284031215611d9a57600080fd5b6000611da884828501611d20565b91505092915050565b600060208284031215611dc357600080fd5b6000611dd184828501611d35565b91505092915050565b600060208284031215611dec57600080fd5b6000611dfa84828501611d4a565b91505092915050565b611e0c81612369565b82525050565b611e1b8161237b565b82525050565b6000611e2c82612222565b611e368185612238565b9350611e468185602086016123b1565b80840191505092915050565b6000611e5d8261222d565b611e678185612243565b9350611e778185602086016123b1565b611e8081612442565b840191505092915050565b6000611e98601483612243565b9150611ea382612453565b602082019050919050565b6000611ebb602683612243565b9150611ec68261247c565b604082019050919050565b6000611ede600e83612243565b9150611ee9826124cb565b602082019050919050565b6000611f01602683612243565b9150611f0c826124f4565b604082019050919050565b6000611f24601083612243565b9150611f2f82612543565b602082019050919050565b6000611f47602083612243565b9150611f528261256c565b602082019050919050565b6000611f6a601d83612243565b9150611f7582612595565b602082019050919050565b6000611f8d602a83612243565b9150611f98826125be565b604082019050919050565b6000611fb0601f83612243565b9150611fbb8261260d565b602082019050919050565b6000611fd3600f83612243565b9150611fde82612636565b602082019050919050565b611ff2816123a7565b82525050565b60006120048284611e21565b915081905092915050565b60006020820190506120246000830184611e03565b92915050565b600060608201905061203f6000830186611e03565b61204c6020830185611e03565b6120596040830184611fe9565b949350505050565b60006040820190506120766000830185611e03565b6120836020830184611fe9565b9392505050565b600060208201905061209f6000830184611e12565b92915050565b600060208201905081810360008301526120bf8184611e52565b905092915050565b600060208201905081810360008301526120e081611e8b565b9050919050565b6000602082019050818103600083015261210081611eae565b9050919050565b6000602082019050818103600083015261212081611ed1565b9050919050565b6000602082019050818103600083015261214081611ef4565b9050919050565b6000602082019050818103600083015261216081611f17565b9050919050565b6000602082019050818103600083015261218081611f3a565b9050919050565b600060208201905081810360008301526121a081611f5d565b9050919050565b600060208201905081810360008301526121c081611f80565b9050919050565b600060208201905081810360008301526121e081611fa3565b9050919050565b6000602082019050818103600083015261220081611fc6565b9050919050565b600060208201905061221c6000830184611fe9565b92915050565b600081519050919050565b600081519050919050565b600081905092915050565b600082825260208201905092915050565b600061225f826123a7565b915061226a836123a7565b9250827fffffffffffffffffffffffffffffffffffffffffffffffffffffffffffffffff0382111561229f5761229e6123e4565b5b828201905092915050565b60006122b5826123a7565b91506122c0836123a7565b9250826122d0576122cf612413565b5b828204905092915050565b60006122e6826123a7565b91506122f1836123a7565b9250817fffffffffffffffffffffffffffffffffffffffffffffffffffffffffffffffff048311821515161561232a576123296123e4565b5b828202905092915050565b6000612340826123a7565b915061234b836123a7565b92508282101561235e5761235d6123e4565b5b828203905092915050565b600061237482612387565b9050919050565b60008115159050919050565b600073ffffffffffffffffffffffffffffffffffffffff82169050919050565b6000819050919050565b60005b838110156123cf5780820151818401526020810190506123b4565b838111156123de576000848401525b50505050565b7f4e487b7100000000000000000000000000000000000000000000000000000000600052601160045260246000fd5b7f4e487b7100000000000000000000000000000000000000000000000000000000600052601260045260246000fd5b6000601f19601f8301169050919050565b7f5061757361626c653a206e6f7420706175736564000000000000000000000000600082015250565b7f4f776e61626c653a206e6577206f776e657220697320746865207a65726f206160008201527f6464726573730000000000000000000000000000000000000000000000000000602082015250565b7f43616e6e6f74207374616b652030000000000000000000000000000000000000600082015250565b7f416464726573733a20696e73756666696369656e742062616c616e636520666f60008201527f722063616c6c0000000000000000000000000000000000000000000000000000602082015250565b7f5061757361626c653a2070617573656400000000000000000000000000000000600082015250565b7f4f776e61626c653a2063616c6c6572206973206e6f7420746865206f776e6572600082015250565b7f416464726573733a2063616c6c20746f206e6f6e2d636f6e7472616374000000600082015250565b7f5361666545524332303a204552433230206f7065726174696f6e20646964206e60008201527f6f74207375636365656400000000000000000000000000000000000000000000602082015250565b7f5265656e7472616e637947756172643a207265656e7472616e742063616c6c00600082015250565b7f43616e6e6f742072656d6f766520300000000000000000000000000000000000600082015250565b61266881612369565b811461267357600080fd5b50565b61267f8161237b565b811461268a57600080fd5b50565b612696816123a7565b81146126a157600080fd5b5056fea264697066735822122083b3a0ea73b780eacd6593c503db320acc9d138ba980540d5fb4cee8fc7288ad64736f6c63430008040033",
  "linkReferences": {},
  "deployedLinkReferences": {}
}